{
  "contractName": "AlinedTicket",
  "abi": [
    {
      "inputs": [],
      "stateMutability": "nonpayable",
      "type": "constructor"
    },
    {
      "anonymous": false,
      "inputs": [
        {
          "indexed": true,
          "internalType": "address",
          "name": "owner",
          "type": "address"
        },
        {
          "indexed": true,
          "internalType": "address",
          "name": "approved",
          "type": "address"
        },
        {
          "indexed": true,
          "internalType": "uint256",
          "name": "tokenId",
          "type": "uint256"
        }
      ],
      "name": "Approval",
      "type": "event"
    },
    {
      "anonymous": false,
      "inputs": [
        {
          "indexed": true,
          "internalType": "address",
          "name": "owner",
          "type": "address"
        },
        {
          "indexed": true,
          "internalType": "address",
          "name": "operator",
          "type": "address"
        },
        {
          "indexed": false,
          "internalType": "bool",
          "name": "approved",
          "type": "bool"
        }
      ],
      "name": "ApprovalForAll",
      "type": "event"
    },
    {
      "anonymous": false,
      "inputs": [
        {
          "indexed": true,
          "internalType": "address",
          "name": "from",
          "type": "address"
        },
        {
          "indexed": true,
          "internalType": "address",
          "name": "to",
          "type": "address"
        },
        {
          "indexed": true,
          "internalType": "uint256",
          "name": "tokenId",
          "type": "uint256"
        }
      ],
      "name": "Transfer",
      "type": "event"
    },
    {
      "inputs": [
        {
          "internalType": "address",
          "name": "to",
          "type": "address"
        },
        {
          "internalType": "uint256",
          "name": "tokenId",
          "type": "uint256"
        }
      ],
      "name": "approve",
      "outputs": [],
      "stateMutability": "nonpayable",
      "type": "function"
    },
    {
      "inputs": [
        {
          "internalType": "address",
          "name": "owner",
          "type": "address"
        }
      ],
      "name": "balanceOf",
      "outputs": [
        {
          "internalType": "uint256",
          "name": "",
          "type": "uint256"
        }
      ],
      "stateMutability": "view",
      "type": "function",
      "constant": true
    },
    {
      "inputs": [
        {
          "internalType": "uint256",
          "name": "tokenId",
          "type": "uint256"
        }
      ],
      "name": "getApproved",
      "outputs": [
        {
          "internalType": "address",
          "name": "",
          "type": "address"
        }
      ],
      "stateMutability": "view",
      "type": "function",
      "constant": true
    },
    {
      "inputs": [
        {
          "internalType": "address",
          "name": "owner",
          "type": "address"
        },
        {
          "internalType": "address",
          "name": "operator",
          "type": "address"
        }
      ],
      "name": "isApprovedForAll",
      "outputs": [
        {
          "internalType": "bool",
          "name": "",
          "type": "bool"
        }
      ],
      "stateMutability": "view",
      "type": "function",
      "constant": true
    },
    {
      "inputs": [],
      "name": "name",
      "outputs": [
        {
          "internalType": "string",
          "name": "",
          "type": "string"
        }
      ],
      "stateMutability": "view",
      "type": "function",
      "constant": true
    },
    {
      "inputs": [
        {
          "internalType": "uint256",
          "name": "tokenId",
          "type": "uint256"
        }
      ],
      "name": "ownerOf",
      "outputs": [
        {
          "internalType": "address",
          "name": "",
          "type": "address"
        }
      ],
      "stateMutability": "view",
      "type": "function",
      "constant": true
    },
    {
      "inputs": [
        {
          "internalType": "address",
          "name": "from",
          "type": "address"
        },
        {
          "internalType": "address",
          "name": "to",
          "type": "address"
        },
        {
          "internalType": "uint256",
          "name": "tokenId",
          "type": "uint256"
        }
      ],
      "name": "safeTransferFrom",
      "outputs": [],
      "stateMutability": "nonpayable",
      "type": "function"
    },
    {
      "inputs": [
        {
          "internalType": "address",
          "name": "from",
          "type": "address"
        },
        {
          "internalType": "address",
          "name": "to",
          "type": "address"
        },
        {
          "internalType": "uint256",
          "name": "tokenId",
          "type": "uint256"
        },
        {
          "internalType": "bytes",
          "name": "_data",
          "type": "bytes"
        }
      ],
      "name": "safeTransferFrom",
      "outputs": [],
      "stateMutability": "nonpayable",
      "type": "function"
    },
    {
      "inputs": [
        {
          "internalType": "address",
          "name": "operator",
          "type": "address"
        },
        {
          "internalType": "bool",
          "name": "approved",
          "type": "bool"
        }
      ],
      "name": "setApprovalForAll",
      "outputs": [],
      "stateMutability": "nonpayable",
      "type": "function"
    },
    {
      "inputs": [
        {
          "internalType": "bytes4",
          "name": "interfaceId",
          "type": "bytes4"
        }
      ],
      "name": "supportsInterface",
      "outputs": [
        {
          "internalType": "bool",
          "name": "",
          "type": "bool"
        }
      ],
      "stateMutability": "view",
      "type": "function",
      "constant": true
    },
    {
      "inputs": [],
      "name": "symbol",
      "outputs": [
        {
          "internalType": "string",
          "name": "",
          "type": "string"
        }
      ],
      "stateMutability": "view",
      "type": "function",
      "constant": true
    },
    {
      "inputs": [
        {
          "internalType": "address",
          "name": "from",
          "type": "address"
        },
        {
          "internalType": "address",
          "name": "to",
          "type": "address"
        },
        {
          "internalType": "uint256",
          "name": "tokenId",
          "type": "uint256"
        }
      ],
      "name": "transferFrom",
      "outputs": [],
      "stateMutability": "nonpayable",
      "type": "function"
    },
    {
      "inputs": [
        {
          "internalType": "address",
          "name": "to",
          "type": "address"
        }
      ],
      "name": "mint",
      "outputs": [],
      "stateMutability": "nonpayable",
      "type": "function"
    },
    {
      "inputs": [
        {
          "internalType": "uint256",
          "name": "tokenId",
          "type": "uint256"
        }
      ],
      "name": "tokenURI",
      "outputs": [
        {
          "internalType": "string",
          "name": "",
          "type": "string"
        }
      ],
      "stateMutability": "view",
      "type": "function",
      "constant": true
    },
    {
      "inputs": [
        {
          "internalType": "address",
          "name": "from",
          "type": "address"
        }
      ],
      "name": "tokenIDOwnedByAddress",
      "outputs": [
        {
          "internalType": "uint256",
          "name": "id",
          "type": "uint256"
        }
      ],
      "stateMutability": "view",
      "type": "function",
      "constant": true
    },
    {
      "inputs": [
        {
          "internalType": "uint256",
          "name": "tokenId",
          "type": "uint256"
        }
      ],
      "name": "burn",
      "outputs": [],
      "stateMutability": "nonpayable",
      "type": "function"
    }
  ],
  "bytecode": "0x60806040523480156200001157600080fd5b506040518060400160405280600f81526020017f416c696e65642773205469636b657400000000000000000000000000000000008152506040518060400160405280600681526020017f414c494e45440000000000000000000000000000000000000000000000000000815250816000908051906020019062000096929190620000c0565b508060019080519060200190620000af929190620000c0565b5050506032600781905550620001d5565b828054620000ce9062000170565b90600052602060002090601f016020900481019282620000f257600085556200013e565b82601f106200010d57805160ff19168380011785556200013e565b828001600101855582156200013e579182015b828111156200013d57825182559160200191906001019062000120565b5b5090506200014d919062000151565b5090565b5b808211156200016c57600081600090555060010162000152565b5090565b600060028204905060018216806200018957607f821691505b60208210811415620001a0576200019f620001a6565b5b50919050565b7f4e487b7100000000000000000000000000000000000000000000000000000000600052602260045260246000fd5b612b4080620001e56000396000f3fe608060405234801561001057600080fd5b50600436106101005760003560e01c80636a62784211610097578063a4f1681411610066578063a4f16814146102a9578063b88d4fde146102d9578063c87b56dd146102f5578063e985e9c51461032557610100565b80636a6278421461022357806370a082311461023f57806395d89b411461026f578063a22cb4651461028d57610100565b806323b872dd116100d357806323b872dd1461019f57806342842e0e146101bb57806342966c68146101d75780636352211e146101f357610100565b806301ffc9a71461010557806306fdde0314610135578063081812fc14610153578063095ea7b314610183575b600080fd5b61011f600480360381019061011a9190611bd7565b610355565b60405161012c919061240b565b60405180910390f35b61013d610437565b60405161014a9190612426565b60405180910390f35b61016d60048036038101906101689190611c29565b6104c9565b60405161017a91906123a4565b60405180910390f35b61019d60048036038101906101989190611b9b565b61054e565b005b6101b960048036038101906101b49190611a95565b610666565b005b6101d560048036038101906101d09190611a95565b6106c6565b005b6101f160048036038101906101ec9190611c29565b6106e6565b005b61020d60048036038101906102089190611c29565b610705565b60405161021a91906123a4565b60405180910390f35b61023d60048036038101906102389190611a30565b6107b7565b005b61025960048036038101906102549190611a30565b6108f9565b6040516102669190612648565b60405180910390f35b6102776109b1565b6040516102849190612426565b60405180910390f35b6102a760048036038101906102a29190611b5f565b610a43565b005b6102c360048036038101906102be9190611a30565b610bc4565b6040516102d09190612648565b60405180910390f35b6102f360048036038101906102ee9190611ae4565b610c0d565b005b61030f600480360381019061030a9190611c29565b610c6f565b60405161031c9190612426565b60405180910390f35b61033f600480360381019061033a9190611a59565b610cf7565b60405161034c919061240b565b60405180910390f35b60007f80ac58cd000000000000000000000000000000000000000000000000000000007bffffffffffffffffffffffffffffffffffffffffffffffffffffffff1916827bffffffffffffffffffffffffffffffffffffffffffffffffffffffff1916148061042057507f5b5e139f000000000000000000000000000000000000000000000000000000007bffffffffffffffffffffffffffffffffffffffffffffffffffffffff1916827bffffffffffffffffffffffffffffffffffffffffffffffffffffffff1916145b80610430575061042f82610d8b565b5b9050919050565b60606000805461044690612916565b80601f016020809104026020016040519081016040528092919081815260200182805461047290612916565b80156104bf5780601f10610494576101008083540402835291602001916104bf565b820191906000526020600020905b8154815290600101906020018083116104a257829003601f168201915b5050505050905090565b60006104d482610df5565b610513576040517f08c379a000000000000000000000000000000000000000000000000000000000815260040161050a906125a8565b60405180910390fd5b6004600083815260200190815260200160002060009054906101000a900473ffffffffffffffffffffffffffffffffffffffff169050919050565b600061055982610705565b90508073ffffffffffffffffffffffffffffffffffffffff168373ffffffffffffffffffffffffffffffffffffffff1614156105ca576040517f08c379a00000000000000000000000000000000000000000000000000000000081526004016105c190612608565b60405180910390fd5b8073ffffffffffffffffffffffffffffffffffffffff166105e9610e61565b73ffffffffffffffffffffffffffffffffffffffff161480610618575061061781610612610e61565b610cf7565b5b610657576040517f08c379a000000000000000000000000000000000000000000000000000000000815260040161064e90612528565b60405180910390fd5b6106618383610e69565b505050565b610677610671610e61565b82610f22565b6106b6576040517f08c379a00000000000000000000000000000000000000000000000000000000081526004016106ad90612628565b60405180910390fd5b6106c1838383611000565b505050565b6106e183838360405180602001604052806000815250610c0d565b505050565b6106f03382610f22565b6106f957600080fd5b6107028161125c565b50565b6000806002600084815260200190815260200160002060009054906101000a900473ffffffffffffffffffffffffffffffffffffffff169050600073ffffffffffffffffffffffffffffffffffffffff168173ffffffffffffffffffffffffffffffffffffffff1614156107ae576040517f08c379a00000000000000000000000000000000000000000000000000000000081526004016107a590612568565b60405180910390fd5b80915050919050565b60006107c3600661136d565b905060006001826107d49190612707565b9050600754811061081a576040517f08c379a000000000000000000000000000000000000000000000000000000000815260040161081190612508565b60405180910390fd5b6000600860003373ffffffffffffffffffffffffffffffffffffffff1673ffffffffffffffffffffffffffffffffffffffff168152602001908152602001600020541461089c576040517f08c379a0000000000000000000000000000000000000000000000000000000008152600401610893906124c8565b60405180910390fd5b6108a6600661137b565b6108b08382611391565b80600860008573ffffffffffffffffffffffffffffffffffffffff1673ffffffffffffffffffffffffffffffffffffffff16815260200190815260200160002081905550505050565b60008073ffffffffffffffffffffffffffffffffffffffff168273ffffffffffffffffffffffffffffffffffffffff16141561096a576040517f08c379a000000000000000000000000000000000000000000000000000000000815260040161096190612548565b60405180910390fd5b600360008373ffffffffffffffffffffffffffffffffffffffff1673ffffffffffffffffffffffffffffffffffffffff168152602001908152602001600020549050919050565b6060600180546109c090612916565b80601f01602080910402602001604051908101604052809291908181526020018280546109ec90612916565b8015610a395780601f10610a0e57610100808354040283529160200191610a39565b820191906000526020600020905b815481529060010190602001808311610a1c57829003601f168201915b5050505050905090565b610a4b610e61565b73ffffffffffffffffffffffffffffffffffffffff168273ffffffffffffffffffffffffffffffffffffffff161415610ab9576040517f08c379a0000000000000000000000000000000000000000000000000000000008152600401610ab0906124a8565b60405180910390fd5b8060056000610ac6610e61565b73ffffffffffffffffffffffffffffffffffffffff1673ffffffffffffffffffffffffffffffffffffffff16815260200190815260200160002060008473ffffffffffffffffffffffffffffffffffffffff1673ffffffffffffffffffffffffffffffffffffffff16815260200190815260200160002060006101000a81548160ff0219169083151502179055508173ffffffffffffffffffffffffffffffffffffffff16610b73610e61565b73ffffffffffffffffffffffffffffffffffffffff167f17307eab39ab6107e8899845ad3d59bd9653f200f220920489ca2b5937696c3183604051610bb8919061240b565b60405180910390a35050565b6000600860008373ffffffffffffffffffffffffffffffffffffffff1673ffffffffffffffffffffffffffffffffffffffff168152602001908152602001600020549050919050565b610c1e610c18610e61565b83610f22565b610c5d576040517f08c379a0000000000000000000000000000000000000000000000000000000008152600401610c5490612628565b60405180910390fd5b610c698484848461155f565b50505050565b6060610c7a82610df5565b610cb9576040517f08c379a0000000000000000000000000000000000000000000000000000000008152600401610cb0906125e8565b60405180910390fd5b6000610cc36115bb565b905080610ccf846115db565b604051602001610ce092919061236a565b604051602081830303815290604052915050919050565b6000600560008473ffffffffffffffffffffffffffffffffffffffff1673ffffffffffffffffffffffffffffffffffffffff16815260200190815260200160002060008373ffffffffffffffffffffffffffffffffffffffff1673ffffffffffffffffffffffffffffffffffffffff16815260200190815260200160002060009054906101000a900460ff16905092915050565b60007f01ffc9a7000000000000000000000000000000000000000000000000000000007bffffffffffffffffffffffffffffffffffffffffffffffffffffffff1916827bffffffffffffffffffffffffffffffffffffffffffffffffffffffff1916149050919050565b60008073ffffffffffffffffffffffffffffffffffffffff166002600084815260200190815260200160002060009054906101000a900473ffffffffffffffffffffffffffffffffffffffff1673ffffffffffffffffffffffffffffffffffffffff1614159050919050565b600033905090565b816004600083815260200190815260200160002060006101000a81548173ffffffffffffffffffffffffffffffffffffffff021916908373ffffffffffffffffffffffffffffffffffffffff160217905550808273ffffffffffffffffffffffffffffffffffffffff16610edc83610705565b73ffffffffffffffffffffffffffffffffffffffff167f8c5be1e5ebec7d5bd14f71427d1e84f3dd0314c0f7b2291e5b200ac8c7c3b92560405160405180910390a45050565b6000610f2d82610df5565b610f6c576040517f08c379a0000000000000000000000000000000000000000000000000000000008152600401610f63906124e8565b60405180910390fd5b6000610f7783610705565b90508073ffffffffffffffffffffffffffffffffffffffff168473ffffffffffffffffffffffffffffffffffffffff161480610fe657508373ffffffffffffffffffffffffffffffffffffffff16610fce846104c9565b73ffffffffffffffffffffffffffffffffffffffff16145b80610ff75750610ff68185610cf7565b5b91505092915050565b8273ffffffffffffffffffffffffffffffffffffffff1661102082610705565b73ffffffffffffffffffffffffffffffffffffffff1614611076576040517f08c379a000000000000000000000000000000000000000000000000000000000815260040161106d906125c8565b60405180910390fd5b600073ffffffffffffffffffffffffffffffffffffffff168273ffffffffffffffffffffffffffffffffffffffff1614156110e6576040517f08c379a00000000000000000000000000000000000000000000000000000000081526004016110dd90612488565b60405180910390fd5b6110f18383836117b0565b6110fc600082610e69565b6001600360008573ffffffffffffffffffffffffffffffffffffffff1673ffffffffffffffffffffffffffffffffffffffff168152602001908152602001600020600082825461114c919061281f565b925050819055506001600360008473ffffffffffffffffffffffffffffffffffffffff1673ffffffffffffffffffffffffffffffffffffffff16815260200190815260200160002060008282546111a39190612707565b92505081905550816002600083815260200190815260200160002060006101000a81548173ffffffffffffffffffffffffffffffffffffffff021916908373ffffffffffffffffffffffffffffffffffffffff160217905550808273ffffffffffffffffffffffffffffffffffffffff168473ffffffffffffffffffffffffffffffffffffffff167fddf252ad1be2c89b69c2b068fc378daa952ba7f163c4a11628f55a4df523b3ef60405160405180910390a4505050565b600061126782610705565b9050611275816000846117b0565b611280600083610e69565b6001600360008373ffffffffffffffffffffffffffffffffffffffff1673ffffffffffffffffffffffffffffffffffffffff16815260200190815260200160002060008282546112d0919061281f565b925050819055506002600083815260200190815260200160002060006101000a81549073ffffffffffffffffffffffffffffffffffffffff021916905581600073ffffffffffffffffffffffffffffffffffffffff168273ffffffffffffffffffffffffffffffffffffffff167fddf252ad1be2c89b69c2b068fc378daa952ba7f163c4a11628f55a4df523b3ef60405160405180910390a45050565b600081600001549050919050565b6001816000016000828254019250508190555050565b600073ffffffffffffffffffffffffffffffffffffffff168273ffffffffffffffffffffffffffffffffffffffff161415611401576040517f08c379a00000000000000000000000000000000000000000000000000000000081526004016113f890612588565b60405180910390fd5b61140a81610df5565b1561144a576040517f08c379a000000000000000000000000000000000000000000000000000000000815260040161144190612468565b60405180910390fd5b611456600083836117b0565b6001600360008473ffffffffffffffffffffffffffffffffffffffff1673ffffffffffffffffffffffffffffffffffffffff16815260200190815260200160002060008282546114a69190612707565b92505081905550816002600083815260200190815260200160002060006101000a81548173ffffffffffffffffffffffffffffffffffffffff021916908373ffffffffffffffffffffffffffffffffffffffff160217905550808273ffffffffffffffffffffffffffffffffffffffff16600073ffffffffffffffffffffffffffffffffffffffff167fddf252ad1be2c89b69c2b068fc378daa952ba7f163c4a11628f55a4df523b3ef60405160405180910390a45050565b61156a848484611000565b611576848484846117b5565b6115b5576040517f08c379a00000000000000000000000000000000000000000000000000000000081526004016115ac90612448565b60405180910390fd5b50505050565b6060604051806080016040528060508152602001612abb60509139905090565b60606000821415611623576040518060400160405280600181526020017f300000000000000000000000000000000000000000000000000000000000000081525090506117ab565b600082905060005b6000821461165557808061163e90612948565b915050600a8261164e9190612794565b915061162b565b60008167ffffffffffffffff811115611697577f4e487b7100000000000000000000000000000000000000000000000000000000600052604160045260246000fd5b6040519080825280601f01601f1916602001820160405280156116c95781602001600182028036833780820191505090505b50905060008290505b600086146117a3576001816116e7919061281f565b90506000600a80886116f99190612794565b61170391906127c5565b8761170e919061281f565b603061171a919061275d565b905060008160f81b90508084848151811061175e577f4e487b7100000000000000000000000000000000000000000000000000000000600052603260045260246000fd5b60200101907effffffffffffffffffffffffffffffffffffffffffffffffffffffffffffff1916908160001a905350600a8861179a9190612794565b975050506116d2565b819450505050505b919050565b505050565b60006117d68473ffffffffffffffffffffffffffffffffffffffff1661194c565b1561193f578373ffffffffffffffffffffffffffffffffffffffff1663150b7a026117ff610e61565b8786866040518563ffffffff1660e01b815260040161182194939291906123bf565b602060405180830381600087803b15801561183b57600080fd5b505af192505050801561186c57506040513d601f19601f820116820180604052508101906118699190611c00565b60015b6118ef573d806000811461189c576040519150601f19603f3d011682016040523d82523d6000602084013e6118a1565b606091505b506000815114156118e7576040517f08c379a00000000000000000000000000000000000000000000000000000000081526004016118de90612448565b60405180910390fd5b805181602001fd5b63150b7a0260e01b7bffffffffffffffffffffffffffffffffffffffffffffffffffffffff1916817bffffffffffffffffffffffffffffffffffffffffffffffffffffffff191614915050611944565b600190505b949350505050565b600080823b905060008111915050919050565b600061197261196d84612694565b612663565b90508281526020810184848401111561198a57600080fd5b6119958482856128d4565b509392505050565b6000813590506119ac81612a5e565b92915050565b6000813590506119c181612a75565b92915050565b6000813590506119d681612a8c565b92915050565b6000815190506119eb81612a8c565b92915050565b600082601f830112611a0257600080fd5b8135611a1284826020860161195f565b91505092915050565b600081359050611a2a81612aa3565b92915050565b600060208284031215611a4257600080fd5b6000611a508482850161199d565b91505092915050565b60008060408385031215611a6c57600080fd5b6000611a7a8582860161199d565b9250506020611a8b8582860161199d565b9150509250929050565b600080600060608486031215611aaa57600080fd5b6000611ab88682870161199d565b9350506020611ac98682870161199d565b9250506040611ada86828701611a1b565b9150509250925092565b60008060008060808587031215611afa57600080fd5b6000611b088782880161199d565b9450506020611b198782880161199d565b9350506040611b2a87828801611a1b565b925050606085013567ffffffffffffffff811115611b4757600080fd5b611b53878288016119f1565b91505092959194509250565b60008060408385031215611b7257600080fd5b6000611b808582860161199d565b9250506020611b91858286016119b2565b9150509250929050565b60008060408385031215611bae57600080fd5b6000611bbc8582860161199d565b9250506020611bcd85828601611a1b565b9150509250929050565b600060208284031215611be957600080fd5b6000611bf7848285016119c7565b91505092915050565b600060208284031215611c1257600080fd5b6000611c20848285016119dc565b91505092915050565b600060208284031215611c3b57600080fd5b6000611c4984828501611a1b565b91505092915050565b611c5b81612853565b82525050565b611c6a81612865565b82525050565b6000611c7b826126c4565b611c8581856126da565b9350611c958185602086016128e3565b611c9e81612a4d565b840191505092915050565b6000611cb4826126cf565b611cbe81856126eb565b9350611cce8185602086016128e3565b611cd781612a4d565b840191505092915050565b6000611ced826126cf565b611cf781856126fc565b9350611d078185602086016128e3565b80840191505092915050565b6000611d206032836126eb565b91507f4552433732313a207472616e7366657220746f206e6f6e20455243373231526560008301527f63656976657220696d706c656d656e74657200000000000000000000000000006020830152604082019050919050565b6000611d86601c836126eb565b91507f4552433732313a20746f6b656e20616c7265616479206d696e746564000000006000830152602082019050919050565b6000611dc66024836126eb565b91507f4552433732313a207472616e7366657220746f20746865207a65726f2061646460008301527f72657373000000000000000000000000000000000000000000000000000000006020830152604082019050919050565b6000611e2c6019836126eb565b91507f4552433732313a20617070726f766520746f2063616c6c6572000000000000006000830152602082019050919050565b6000611e6c6023836126eb565b91507f4163636f756e74206d757374206e6f742068617665206d696e7465642062656660008301527f6f726500000000000000000000000000000000000000000000000000000000006020830152604082019050919050565b6000611ed2602c836126eb565b91507f4552433732313a206f70657261746f7220717565727920666f72206e6f6e657860008301527f697374656e7420746f6b656e00000000000000000000000000000000000000006020830152604082019050919050565b6000611f386019836126eb565b91507f4d696e742063617020686173206265656e2072656163686564000000000000006000830152602082019050919050565b6000611f786038836126eb565b91507f4552433732313a20617070726f76652063616c6c6572206973206e6f74206f7760008301527f6e6572206e6f7220617070726f76656420666f7220616c6c00000000000000006020830152604082019050919050565b6000611fde602a836126eb565b91507f4552433732313a2062616c616e636520717565727920666f7220746865207a6560008301527f726f2061646472657373000000000000000000000000000000000000000000006020830152604082019050919050565b60006120446029836126eb565b91507f4552433732313a206f776e657220717565727920666f72206e6f6e657869737460008301527f656e7420746f6b656e00000000000000000000000000000000000000000000006020830152604082019050919050565b60006120aa6020836126eb565b91507f4552433732313a206d696e7420746f20746865207a65726f20616464726573736000830152602082019050919050565b60006120ea602c836126eb565b91507f4552433732313a20617070726f76656420717565727920666f72206e6f6e657860008301527f697374656e7420746f6b656e00000000000000000000000000000000000000006020830152604082019050919050565b60006121506005836126fc565b91507f2e6a736f6e0000000000000000000000000000000000000000000000000000006000830152600582019050919050565b60006121906029836126eb565b91507f4552433732313a207472616e73666572206f6620746f6b656e2074686174206960008301527f73206e6f74206f776e00000000000000000000000000000000000000000000006020830152604082019050919050565b60006121f6602f836126eb565b91507f4552433732314d657461646174613a2055524920717565727920666f72206e6f60008301527f6e6578697374656e7420746f6b656e00000000000000000000000000000000006020830152604082019050919050565b600061225c6021836126eb565b91507f4552433732313a20617070726f76616c20746f2063757272656e74206f776e6560008301527f72000000000000000000000000000000000000000000000000000000000000006020830152604082019050919050565b60006122c26031836126eb565b91507f4552433732313a207472616e736665722063616c6c6572206973206e6f74206f60008301527f776e6572206e6f7220617070726f7665640000000000000000000000000000006020830152604082019050919050565b60006123286001836126fc565b91507f2f000000000000000000000000000000000000000000000000000000000000006000830152600182019050919050565b612364816128bd565b82525050565b60006123768285611ce2565b91506123818261231b565b915061238d8284611ce2565b915061239882612143565b91508190509392505050565b60006020820190506123b96000830184611c52565b92915050565b60006080820190506123d46000830187611c52565b6123e16020830186611c52565b6123ee604083018561235b565b81810360608301526124008184611c70565b905095945050505050565b60006020820190506124206000830184611c61565b92915050565b600060208201905081810360008301526124408184611ca9565b905092915050565b6000602082019050818103600083015261246181611d13565b9050919050565b6000602082019050818103600083015261248181611d79565b9050919050565b600060208201905081810360008301526124a181611db9565b9050919050565b600060208201905081810360008301526124c181611e1f565b9050919050565b600060208201905081810360008301526124e181611e5f565b9050919050565b6000602082019050818103600083015261250181611ec5565b9050919050565b6000602082019050818103600083015261252181611f2b565b9050919050565b6000602082019050818103600083015261254181611f6b565b9050919050565b6000602082019050818103600083015261256181611fd1565b9050919050565b6000602082019050818103600083015261258181612037565b9050919050565b600060208201905081810360008301526125a18161209d565b9050919050565b600060208201905081810360008301526125c1816120dd565b9050919050565b600060208201905081810360008301526125e181612183565b9050919050565b60006020820190508181036000830152612601816121e9565b9050919050565b600060208201905081810360008301526126218161224f565b9050919050565b60006020820190508181036000830152612641816122b5565b9050919050565b600060208201905061265d600083018461235b565b92915050565b6000604051905081810181811067ffffffffffffffff8211171561268a57612689612a1e565b5b8060405250919050565b600067ffffffffffffffff8211156126af576126ae612a1e565b5b601f19601f8301169050602081019050919050565b600081519050919050565b600081519050919050565b600082825260208201905092915050565b600082825260208201905092915050565b600081905092915050565b6000612712826128bd565b915061271d836128bd565b9250827fffffffffffffffffffffffffffffffffffffffffffffffffffffffffffffffff0382111561275257612751612991565b5b828201905092915050565b6000612768826128c7565b9150612773836128c7565b92508260ff0382111561278957612788612991565b5b828201905092915050565b600061279f826128bd565b91506127aa836128bd565b9250826127ba576127b96129c0565b5b828204905092915050565b60006127d0826128bd565b91506127db836128bd565b9250817fffffffffffffffffffffffffffffffffffffffffffffffffffffffffffffffff048311821515161561281457612813612991565b5b828202905092915050565b600061282a826128bd565b9150612835836128bd565b92508282101561284857612847612991565b5b828203905092915050565b600061285e8261289d565b9050919050565b60008115159050919050565b60007fffffffff0000000000000000000000000000000000000000000000000000000082169050919050565b600073ffffffffffffffffffffffffffffffffffffffff82169050919050565b6000819050919050565b600060ff82169050919050565b82818337600083830152505050565b60005b838110156129015780820151818401526020810190506128e6565b83811115612910576000848401525b50505050565b6000600282049050600182168061292e57607f821691505b60208210811415612942576129416129ef565b5b50919050565b6000612953826128bd565b91507fffffffffffffffffffffffffffffffffffffffffffffffffffffffffffffffff82141561298657612985612991565b5b600182019050919050565b7f4e487b7100000000000000000000000000000000000000000000000000000000600052601160045260246000fd5b7f4e487b7100000000000000000000000000000000000000000000000000000000600052601260045260246000fd5b7f4e487b7100000000000000000000000000000000000000000000000000000000600052602260045260246000fd5b7f4e487b7100000000000000000000000000000000000000000000000000000000600052604160045260246000fd5b6000601f19601f8301169050919050565b612a6781612853565b8114612a7257600080fd5b50565b612a7e81612865565b8114612a8957600080fd5b50565b612a9581612871565b8114612aa057600080fd5b50565b612aac816128bd565b8114612ab757600080fd5b5056fe68747470733a2f2f676174657761792e70696e6174612e636c6f75642f697066732f516d62657332776878796673315871524379746b7171324a584b6236746a59784e48515267376545555644536664a2646970667358221220f755497c9633c2e1d38dac8d3100da3beacd18c0a6331f35ae2672b6f9f812c764736f6c63430008000033",
  "immutableReferences": {},
  "source": "pragma solidity ^0.8.0;\r\n\r\nimport \"@openzeppelin/contracts/token/ERC721/ERC721.sol\";\r\nimport \"@openzeppelin/contracts/utils/Counters.sol\";\r\nimport {Helper} from \"./Helper.sol\";\r\n\r\ncontract AlinedTicket is ERC721 {\r\n    \r\n    using Counters for Counters.Counter;\r\n    using Helper for uint;\r\n    Counters.Counter private _tokenIdTracker;\r\n    uint256 private _cap;\r\n    mapping (address => uint256) private addressToTokenID;\r\n\r\n    constructor() ERC721(\"Alined's Ticket\", \"ALINED\") {\r\n        _cap = 50;\r\n    }\r\n\r\n    function mint(address to) public {\r\n        uint256 currentId = _tokenIdTracker.current();\r\n        uint256 nextId = currentId + 1;\r\n        require(nextId < _cap, \"Mint cap has been reached\");\r\n        require(addressToTokenID[msg.sender] == 0, \"Account must not have minted before\");\r\n        _tokenIdTracker.increment();\r\n        _mint(to, nextId);\r\n        addressToTokenID[to] = nextId;\r\n    }\r\n\r\n    function _baseURI() internal pure override returns (string memory) {\r\n        return \"https://gateway.pinata.cloud/ipfs/Qmbes2whxyfs1XqRCytkqq2JXKb6tjYxNHQRg7eEUVDSfd\";\r\n    }\r\n\r\n    function tokenURI(uint256 tokenId) public view virtual override returns (string memory) {\r\n        require(_exists(tokenId), \"ERC721Metadata: URI query for nonexistent token\");\r\n        string memory base = _baseURI();\r\n        return string(abi.encodePacked(base, \"/\", tokenId.uint2str(), \".json\"));\r\n    }\r\n\r\n    function tokenIDOwnedByAddress(address from) public view returns (uint id){\r\n        return addressToTokenID[from];\r\n    }\r\n\r\n    function burn(uint256 tokenId) public {\r\n        require(_isApprovedOrOwner(msg.sender, tokenId));\r\n        _burn(tokenId);\r\n    }\r\n}",
  "sourcePath": "C:/Users/Daniel Lee/Desktop/personalsite/nft/contracts/Ticket.sol",
  "compiler": {
    "name": "solc",
    "version": "0.8.0+commit.c7dfd78e.Emscripten.clang"
  },
  "schemaVersion": "3.3.4",
  "updatedAt": "2021-06-22T04:48:43.422Z",
  "networkType": "ethereum",
  "devdoc": {
    "kind": "dev",
    "methods": {
      "approve(address,uint256)": {
        "details": "See {IERC721-approve}."
      },
      "balanceOf(address)": {
        "details": "See {IERC721-balanceOf}."
      },
      "getApproved(uint256)": {
        "details": "See {IERC721-getApproved}."
      },
      "isApprovedForAll(address,address)": {
        "details": "See {IERC721-isApprovedForAll}."
      },
      "name()": {
        "details": "See {IERC721Metadata-name}."
      },
      "ownerOf(uint256)": {
        "details": "See {IERC721-ownerOf}."
      },
      "safeTransferFrom(address,address,uint256)": {
        "details": "See {IERC721-safeTransferFrom}."
      },
      "safeTransferFrom(address,address,uint256,bytes)": {
        "details": "See {IERC721-safeTransferFrom}."
      },
      "setApprovalForAll(address,bool)": {
        "details": "See {IERC721-setApprovalForAll}."
      },
      "supportsInterface(bytes4)": {
        "details": "See {IERC165-supportsInterface}."
      },
      "symbol()": {
        "details": "See {IERC721Metadata-symbol}."
      },
      "tokenURI(uint256)": {
        "details": "See {IERC721Metadata-tokenURI}."
      },
      "transferFrom(address,address,uint256)": {
        "details": "See {IERC721-transferFrom}."
      }
    },
    "version": 1
  },
  "userdoc": {
    "kind": "user",
    "methods": {},
    "version": 1
  }
}